:100BA900494E5452554445522121210054696D65DD
:100BB900723A2020207365636F6E64730041726D11
:100BC90065640054696D65723A3037207365636FE7
:0D0BD9006E64730044697361726D656400A1
:100CEB00012330012430012830012730022100007C
:040CFB0002290000CA
:100C20007523377580FF75890175A885D28AD288AA
:100C3000C290C292C281C282C297C296C2952080DF
:0E0C400005120B2280F83080F5120ADC80F0DD
:030003000209608F
:10096000C0E0C0F0C083C082C0D075D000C000C05D
:1009700001C002C003C004C005C006C00720B236D3
:10098000309333E52364397007E524B43902800ECF
:10099000E523B43907752330052480020523120CA2
:1009A000D4D202AF23120CD8C2027F86120CD8D246
:1009B00002AF24120CD820B236209333E5236437DB
:1009C0007007E524B43002800EE523B430077523A8
:1009D00039152480021523120CD4D202AF23120C35
:1009E000D8C2027F86120CD8D202AF24120CD8D003
:1009F00007D006D005D004D003D002D001D000D05B
:0A0A0000D0D082D083D0F0D0E032D5
:03001300020B6677
:100B6600C0E0C0F0C083C082C0D075D000C000C055
:100B760001C002C003C004C005C006C007E5226468
:100B860001452170031208B2D007D006D005D00463
:100B9600D003D002D001D000D0D0D082D083D0F004
:030BA600D0E0326A
:100A96008F0B8D0CE50B6430702BE50C64307025E4
:030AA600D3928068
:100AA900F50DD290C2027FC08011E50D900BA9937C
:100AB900600EAF0D050DEF93FFD202120CD880EA3C
:020AC90080FEAD
:100ACB00E50BB4300BE50CB43006D39280120C203E
:010ADB0022F8
:100ADC00E4F517F518120C6BE517900BB593600E37
:100AEC00AF170517EF93FFD202120CD880EAC2029F
:100AFC007FC08011E518900BC693600EAF180518D7
:100B0C00EF93FFD202120CD880EAAD23AF24120867
:060B1C00003080BC80FBEC
:100B2200E4F51DF51E120C6B752430752337E51D97
:100B3200900BCC93600EAF1D051DEF93FFD20212F6
:100B42000CD880EAC2027FC08011E51E900BDD93B3
:100B5200600EAF1E051EEF93FFD202120CD880EA80
:030B62003080FDE3
:010B6500226D
:0A0800008F198D1A2080030208AF43
:10080A0085191B851A1C120CD4D202AF1C120CD8E3
:10081A00C2027F86120CD8D202AF1B120CD8E51B7B
:10082A00C3943040D5E51C943040CF3080CCE51CD1
:10083A0064307010E51B6430600A308007751C391B
:10084A00151B800BE51C6430601F30801C151C12C0
:10085A000C87120CD4D202AF1C120CD8C2027F86AB
:10086A00120CD8D202AF1B8020E51B7021E51C7048
:10087A001D30801A120CD4D2027F30120CD8C20258
:10088A007F86120CD8D2027F30120CD880062080C4
:10089A0003120B22AD1CAF1B120BE6AD1CAF1B12D1
:0508AA000C4E020828BD
:0308AF00020C2018
:100C4E00BF3019BD3016D292120C87752100752255
:0D0C5E0001D281C282120CA1C281D2822279
:100BE600EFD39430400BED94074006D295C296C2DF
:100BF60097BF3011EDC39437500BED94334006C2C6
:100C060095D296C297BF3011EDD39433500BED6455
:0A0C1600376006C295C296D29722FD
:0608B20020800302095D35
:1008B80085240985230A120CD4D202AF0A120CD857
:1008C800C2027F86120CD8D202AF09120CD8E509F1
:1008D800C3943040D5E50A943040CF3080CCE50A47
:1008E80064307010E5096430600A308007750A3991
:1008F8001509800BE50A6430601F30801C150A1248
:100908000C87120CD4D202AF0A120CD8C2027F860E
:10091800120CD8D202AF098020E5097021E50A70CF
:100928001D30801A120CD4D2027F30120CD8C202A9
:100938007F86120CD8D2027F30120CD88006208015
:1009480003120B22AD0AAF09120BE6AD0AAF09126A
:050958000A960208D61A
:03095D00020C2069
:040CD400C2027F8752
:100CD8008F1F120CBB851FA0A20292B6C2B5D2B755
:030CE800C2B7226E
:100CBB00D2A7D2B7C2B6D2B530A709C2B7120D00B0
:090CCB00D2B780F4C2B7C2B52211
:100C6B00C2027F38120CD8C2027F0E120CD8C202FD
:0C0C7B007F06120CD8C2027F01020CD8C8
:100C8700E4F525F526120D000526E5267002052553
:0A0C9700C39428E525940040EC22E8
:100CA100E4F525F526120D000526E5267002052539
:0A0CB100C39414E525940040EC22E2
:100D0000758AFF758CA5D28C308DFDC28CC28D2268
:03000000020A0AE7
:0C0A0A00787FE4F6D8FD75812A020A51BD
:100A1600020C20E493A3F8E493A34003F68001F2CA
:100A260008DFF48029E493A3F85407240CC8C333E1
:100A3600C4540F4420C8834004F456800146F6DFB0
:100A4600E4800B0102040810204080900CEBE47E49
:100A5600019360BCA3FF543F30E509541FFEE493A5
:100A6600A360010ECF54C025E060A840B8E493A36C
:100A7600FAE493A3F8E493A3C8C582C8CAC583CA97
:100A8600F0A3C8C582C8CAC583CADFE9DEE780BE4F
:010CFF0000F4
:00000001FF
